{
  "contractName": "Dex",
  "abi": [
    {
      "inputs": [
        {
          "internalType": "address",
          "name": "_token1",
          "type": "address"
        },
        {
          "internalType": "address",
          "name": "_token2",
          "type": "address"
        }
      ],
      "stateMutability": "nonpayable",
      "type": "constructor"
    },
    {
      "inputs": [
        {
          "internalType": "address",
          "name": "owner",
          "type": "address"
        }
      ],
      "name": "OwnableInvalidOwner",
      "type": "error"
    },
    {
      "inputs": [
        {
          "internalType": "address",
          "name": "account",
          "type": "address"
        }
      ],
      "name": "OwnableUnauthorizedAccount",
      "type": "error"
    },
    {
      "anonymous": false,
      "inputs": [
        {
          "indexed": true,
          "internalType": "address",
          "name": "provider",
          "type": "address"
        },
        {
          "indexed": false,
          "internalType": "uint256",
          "name": "amount1",
          "type": "uint256"
        },
        {
          "indexed": false,
          "internalType": "uint256",
          "name": "amount2",
          "type": "uint256"
        },
        {
          "indexed": false,
          "internalType": "uint256",
          "name": "liquidityMinted",
          "type": "uint256"
        }
      ],
      "name": "LiquidityAdded",
      "type": "event"
    },
    {
      "anonymous": false,
      "inputs": [
        {
          "indexed": true,
          "internalType": "address",
          "name": "provider",
          "type": "address"
        },
        {
          "indexed": false,
          "internalType": "uint256",
          "name": "amount1",
          "type": "uint256"
        },
        {
          "indexed": false,
          "internalType": "uint256",
          "name": "amount2",
          "type": "uint256"
        },
        {
          "indexed": false,
          "internalType": "uint256",
          "name": "liquidityBurned",
          "type": "uint256"
        }
      ],
      "name": "LiquidityRemoved",
      "type": "event"
    },
    {
      "anonymous": false,
      "inputs": [
        {
          "indexed": true,
          "internalType": "address",
          "name": "previousOwner",
          "type": "address"
        },
        {
          "indexed": true,
          "internalType": "address",
          "name": "newOwner",
          "type": "address"
        }
      ],
      "name": "OwnershipTransferred",
      "type": "event"
    },
    {
      "anonymous": false,
      "inputs": [
        {
          "indexed": true,
          "internalType": "address",
          "name": "swapper",
          "type": "address"
        },
        {
          "indexed": false,
          "internalType": "address",
          "name": "inputToken",
          "type": "address"
        },
        {
          "indexed": false,
          "internalType": "uint256",
          "name": "inputAmount",
          "type": "uint256"
        },
        {
          "indexed": false,
          "internalType": "address",
          "name": "outputToken",
          "type": "address"
        },
        {
          "indexed": false,
          "internalType": "uint256",
          "name": "outputAmount",
          "type": "uint256"
        }
      ],
      "name": "Swapped",
      "type": "event"
    },
    {
      "inputs": [
        {
          "internalType": "address",
          "name": "",
          "type": "address"
        }
      ],
      "name": "liquidity",
      "outputs": [
        {
          "internalType": "uint256",
          "name": "",
          "type": "uint256"
        }
      ],
      "stateMutability": "view",
      "type": "function",
      "constant": true
    },
    {
      "inputs": [],
      "name": "owner",
      "outputs": [
        {
          "internalType": "address",
          "name": "",
          "type": "address"
        }
      ],
      "stateMutability": "view",
      "type": "function",
      "constant": true
    },
    {
      "inputs": [],
      "name": "renounceOwnership",
      "outputs": [],
      "stateMutability": "nonpayable",
      "type": "function"
    },
    {
      "inputs": [],
      "name": "reserve1",
      "outputs": [
        {
          "internalType": "uint256",
          "name": "",
          "type": "uint256"
        }
      ],
      "stateMutability": "view",
      "type": "function",
      "constant": true
    },
    {
      "inputs": [],
      "name": "reserve2",
      "outputs": [
        {
          "internalType": "uint256",
          "name": "",
          "type": "uint256"
        }
      ],
      "stateMutability": "view",
      "type": "function",
      "constant": true
    },
    {
      "inputs": [],
      "name": "token1",
      "outputs": [
        {
          "internalType": "contract IERC20",
          "name": "",
          "type": "address"
        }
      ],
      "stateMutability": "view",
      "type": "function",
      "constant": true
    },
    {
      "inputs": [],
      "name": "token2",
      "outputs": [
        {
          "internalType": "contract IERC20",
          "name": "",
          "type": "address"
        }
      ],
      "stateMutability": "view",
      "type": "function",
      "constant": true
    },
    {
      "inputs": [],
      "name": "totalLiquidity",
      "outputs": [
        {
          "internalType": "uint256",
          "name": "",
          "type": "uint256"
        }
      ],
      "stateMutability": "view",
      "type": "function",
      "constant": true
    },
    {
      "inputs": [
        {
          "internalType": "address",
          "name": "newOwner",
          "type": "address"
        }
      ],
      "name": "transferOwnership",
      "outputs": [],
      "stateMutability": "nonpayable",
      "type": "function"
    },
    {
      "inputs": [
        {
          "internalType": "uint256",
          "name": "amount1",
          "type": "uint256"
        },
        {
          "internalType": "uint256",
          "name": "amount2",
          "type": "uint256"
        }
      ],
      "name": "addLiquidity",
      "outputs": [
        {
          "internalType": "uint256",
          "name": "liquidityMinted",
          "type": "uint256"
        }
      ],
      "stateMutability": "nonpayable",
      "type": "function"
    },
    {
      "inputs": [
        {
          "internalType": "uint256",
          "name": "liquidityAmount",
          "type": "uint256"
        }
      ],
      "name": "removeLiquidity",
      "outputs": [
        {
          "internalType": "uint256",
          "name": "amount1",
          "type": "uint256"
        },
        {
          "internalType": "uint256",
          "name": "amount2",
          "type": "uint256"
        }
      ],
      "stateMutability": "nonpayable",
      "type": "function"
    },
    {
      "inputs": [
        {
          "internalType": "address",
          "name": "inputToken",
          "type": "address"
        },
        {
          "internalType": "uint256",
          "name": "inputAmount",
          "type": "uint256"
        }
      ],
      "name": "swap",
      "outputs": [
        {
          "internalType": "uint256",
          "name": "outputAmount",
          "type": "uint256"
        }
      ],
      "stateMutability": "nonpayable",
      "type": "function"
    },
    {
      "inputs": [
        {
          "internalType": "address",
          "name": "inputToken",
          "type": "address"
        }
      ],
      "name": "getSpotPrice",
      "outputs": [
        {
          "internalType": "uint256",
          "name": "",
          "type": "uint256"
        }
      ],
      "stateMutability": "view",
      "type": "function",
      "constant": true
    },
    {
      "inputs": [],
      "name": "getReserves",
      "outputs": [
        {
          "internalType": "uint256",
          "name": "",
          "type": "uint256"
        },
        {
          "internalType": "uint256",
          "name": "",
          "type": "uint256"
        }
      ],
      "stateMutability": "view",
      "type": "function",
      "constant": true
    }
  ],
  "bytecode": "0x608060405234801562000010575f80fd5b5060405162001d3938038062001d3983398181016040528101906200003691906200026a565b335f73ffffffffffffffffffffffffffffffffffffffff168173ffffffffffffffffffffffffffffffffffffffff1603620000aa575f6040517f1e4fbdf7000000000000000000000000000000000000000000000000000000008152600401620000a19190620002c0565b60405180910390fd5b620000bb816200014460201b60201c565b508160015f6101000a81548173ffffffffffffffffffffffffffffffffffffffff021916908373ffffffffffffffffffffffffffffffffffffffff1602179055508060025f6101000a81548173ffffffffffffffffffffffffffffffffffffffff021916908373ffffffffffffffffffffffffffffffffffffffff1602179055505050620002db565b5f805f9054906101000a900473ffffffffffffffffffffffffffffffffffffffff169050815f806101000a81548173ffffffffffffffffffffffffffffffffffffffff021916908373ffffffffffffffffffffffffffffffffffffffff1602179055508173ffffffffffffffffffffffffffffffffffffffff168173ffffffffffffffffffffffffffffffffffffffff167f8be0079c531659141344cd1fd0a4f28419497f9722a3daafe3b4186f6b6457e060405160405180910390a35050565b5f80fd5b5f73ffffffffffffffffffffffffffffffffffffffff82169050919050565b5f620002348262000209565b9050919050565b620002468162000228565b811462000251575f80fd5b50565b5f8151905062000264816200023b565b92915050565b5f806040838503121562000283576200028262000205565b5b5f620002928582860162000254565b9250506020620002a58582860162000254565b9150509250929050565b620002ba8162000228565b82525050565b5f602082019050620002d55f830184620002af565b92915050565b611a5080620002e95f395ff3fe608060405234801561000f575f80fd5b50600436106100e8575f3560e01c80638da5cb5b1161008a578063b8c876b111610064578063b8c876b11461023c578063d004f0f71461026c578063d21220a71461029c578063f2fde38b146102ba576100e8565b80638da5cb5b146101bd5780639c8f9f23146101db5780639cd441da1461020c576100e8565b80635a76f25e116100c65780635a76f25e146101475780635c0b9a2b146101655780635cd9e01914610183578063715018a6146101b3576100e8565b80630902f1ac146100ec57806315770f921461010b57806325be124e14610129575b5f80fd5b6100f46102d6565b6040516101029291906111ca565b60405180910390f35b6101136102e6565b60405161012091906111f1565b60405180910390f35b6101316102ec565b60405161013e9190611284565b60405180910390f35b61014f610311565b60405161015c91906111f1565b60405180910390f35b61016d610317565b60405161017a91906111f1565b60405180910390f35b61019d600480360381019061019891906112dc565b61031d565b6040516101aa91906111f1565b60405180910390f35b6101bb6103c7565b005b6101c56103da565b6040516101d29190611316565b60405180910390f35b6101f560048036038101906101f09190611359565b610401565b6040516102039291906111ca565b60405180910390f35b61022660048036038101906102219190611384565b6107a7565b60405161023391906111f1565b60405180910390f35b610256600480360381019061025191906112dc565b610ae4565b60405161026391906111f1565b60405180910390f35b610286600480360381019061028191906113c2565b610af9565b60405161029391906111f1565b60405180910390f35b6102a4610f43565b6040516102b19190611284565b60405180910390f35b6102d460048036038101906102cf91906112dc565b610f68565b005b5f80600354600454915091509091565b60055481565b60025f9054906101000a900473ffffffffffffffffffffffffffffffffffffffff1681565b60035481565b60045481565b5f60015f9054906101000a900473ffffffffffffffffffffffffffffffffffffffff1673ffffffffffffffffffffffffffffffffffffffff168273ffffffffffffffffffffffffffffffffffffffff160361039c57600354670de0b6b3a764000060045461038b919061142d565b610395919061149b565b90506103c2565b600454670de0b6b3a76400006003546103b5919061142d565b6103bf919061149b565b90505b919050565b6103cf610fec565b6103d85f611073565b565b5f805f9054906101000a900473ffffffffffffffffffffffffffffffffffffffff16905090565b5f805f8311610445576040517f08c379a000000000000000000000000000000000000000000000000000000000815260040161043c90611525565b60405180910390fd5b8260065f3373ffffffffffffffffffffffffffffffffffffffff1673ffffffffffffffffffffffffffffffffffffffff1681526020019081526020015f205410156104c5576040517f08c379a00000000000000000000000000000000000000000000000000000000081526004016104bc9061158d565b60405180910390fd5b600554600354846104d6919061142d565b6104e0919061149b565b9150600554600454846104f3919061142d565b6104fd919061149b565b90508260065f3373ffffffffffffffffffffffffffffffffffffffff1673ffffffffffffffffffffffffffffffffffffffff1681526020019081526020015f205f82825461054b91906115ab565b925050819055508260055f82825461056391906115ab565b925050819055508160035f82825461057b91906115ab565b925050819055508060045f82825461059391906115ab565b9250508190555060015f9054906101000a900473ffffffffffffffffffffffffffffffffffffffff1673ffffffffffffffffffffffffffffffffffffffff1663a9059cbb33846040518363ffffffff1660e01b81526004016105f69291906115de565b6020604051808303815f875af1158015610612573d5f803e3d5ffd5b505050506040513d601f19601f82011682018060405250810190610636919061163a565b610675576040517f08c379a000000000000000000000000000000000000000000000000000000000815260040161066c906116af565b60405180910390fd5b60025f9054906101000a900473ffffffffffffffffffffffffffffffffffffffff1673ffffffffffffffffffffffffffffffffffffffff1663a9059cbb33836040518363ffffffff1660e01b81526004016106d19291906115de565b6020604051808303815f875af11580156106ed573d5f803e3d5ffd5b505050506040513d601f19601f82011682018060405250810190610711919061163a565b610750576040517f08c379a000000000000000000000000000000000000000000000000000000000815260040161074790611717565b60405180910390fd5b3373ffffffffffffffffffffffffffffffffffffffff167f1dc8bb69df2b8e91fbdcbfcf93d951b3f0000f085a95fe3f7946d6161439245d83838660405161079a93929190611735565b60405180910390a2915091565b5f80831180156107b657505f82115b6107f5576040517f08c379a00000000000000000000000000000000000000000000000000000000081526004016107ec906117b4565b60405180910390fd5b5f6005540361081957610812828461080d919061142d565b611134565b9050610837565b6003546005548461082a919061142d565b610834919061149b565b90505b8060065f3373ffffffffffffffffffffffffffffffffffffffff1673ffffffffffffffffffffffffffffffffffffffff1681526020019081526020015f205f82825461088391906117d2565b925050819055508060055f82825461089b91906117d2565b925050819055508260035f8282546108b391906117d2565b925050819055508160045f8282546108cb91906117d2565b9250508190555060015f9054906101000a900473ffffffffffffffffffffffffffffffffffffffff1673ffffffffffffffffffffffffffffffffffffffff166323b872dd3330866040518463ffffffff1660e01b815260040161093093929190611805565b6020604051808303815f875af115801561094c573d5f803e3d5ffd5b505050506040513d601f19601f82011682018060405250810190610970919061163a565b6109af576040517f08c379a00000000000000000000000000000000000000000000000000000000081526004016109a6906116af565b60405180910390fd5b60025f9054906101000a900473ffffffffffffffffffffffffffffffffffffffff1673ffffffffffffffffffffffffffffffffffffffff166323b872dd3330856040518463ffffffff1660e01b8152600401610a0d93929190611805565b6020604051808303815f875af1158015610a29573d5f803e3d5ffd5b505050506040513d601f19601f82011682018060405250810190610a4d919061163a565b610a8c576040517f08c379a0000000000000000000000000000000000000000000000000000000008152600401610a8390611717565b60405180910390fd5b3373ffffffffffffffffffffffffffffffffffffffff167f64b83944e79c3ce8d4c297411de637c3e102d064677aac0c163976ebdcd6f50e848484604051610ad693929190611735565b60405180910390a292915050565b6006602052805f5260405f205f915090505481565b5f8060015f9054906101000a900473ffffffffffffffffffffffffffffffffffffffff1673ffffffffffffffffffffffffffffffffffffffff168473ffffffffffffffffffffffffffffffffffffffff161490505f805f8084610ba55760025f9054906101000a900473ffffffffffffffffffffffffffffffffffffffff1660015f9054906101000a900473ffffffffffffffffffffffffffffffffffffffff16600454600354610bf0565b60015f9054906101000a900473ffffffffffffffffffffffffffffffffffffffff1660025f9054906101000a900473ffffffffffffffffffffffffffffffffffffffff166003546004545b93509350935093505f6103e86103e589610c0a919061142d565b610c14919061149b565b9050806103e884610c25919061142d565b610c2f91906117d2565b8282610c3b919061142d565b610c45919061149b565b96508373ffffffffffffffffffffffffffffffffffffffff166370a08231306040518263ffffffff1660e01b8152600401610c809190611316565b602060405180830381865afa158015610c9b573d5f803e3d5ffd5b505050506040513d601f19601f82011682018060405250810190610cbf919061184e565b871115610d01576040517f08c379a0000000000000000000000000000000000000000000000000000000008152600401610cf8906118e9565b60405180910390fd5b8473ffffffffffffffffffffffffffffffffffffffff166323b872dd33308b6040518463ffffffff1660e01b8152600401610d3e93929190611805565b6020604051808303815f875af1158015610d5a573d5f803e3d5ffd5b505050506040513d601f19601f82011682018060405250810190610d7e919061163a565b610dbd576040517f08c379a0000000000000000000000000000000000000000000000000000000008152600401610db490611951565b60405180910390fd5b8373ffffffffffffffffffffffffffffffffffffffff1663a9059cbb33896040518363ffffffff1660e01b8152600401610df89291906115de565b6020604051808303815f875af1158015610e14573d5f803e3d5ffd5b505050506040513d601f19601f82011682018060405250810190610e38919061163a565b610e77576040517f08c379a0000000000000000000000000000000000000000000000000000000008152600401610e6e906119b9565b60405180910390fd5b8515610eb2578760035f828254610e8e91906117d2565b925050819055508660045f828254610ea691906115ab565b92505081905550610ee3565b8760045f828254610ec391906117d2565b925050819055508660035f828254610edb91906115ab565b925050819055505b3373ffffffffffffffffffffffffffffffffffffffff167f692315744755ee6d80decaeb993d4b1bb95ff5db042cc47b32d5a7d858b019028a8a878b604051610f2f94939291906119d7565b60405180910390a250505050505092915050565b60015f9054906101000a900473ffffffffffffffffffffffffffffffffffffffff1681565b610f70610fec565b5f73ffffffffffffffffffffffffffffffffffffffff168173ffffffffffffffffffffffffffffffffffffffff1603610fe0575f6040517f1e4fbdf7000000000000000000000000000000000000000000000000000000008152600401610fd79190611316565b60405180910390fd5b610fe981611073565b50565b610ff46111ab565b73ffffffffffffffffffffffffffffffffffffffff166110126103da565b73ffffffffffffffffffffffffffffffffffffffff1614611071576110356111ab565b6040517f118cdaa70000000000000000000000000000000000000000000000000000000081526004016110689190611316565b60405180910390fd5b565b5f805f9054906101000a900473ffffffffffffffffffffffffffffffffffffffff169050815f806101000a81548173ffffffffffffffffffffffffffffffffffffffff021916908373ffffffffffffffffffffffffffffffffffffffff1602179055508173ffffffffffffffffffffffffffffffffffffffff168173ffffffffffffffffffffffffffffffffffffffff167f8be0079c531659141344cd1fd0a4f28419497f9722a3daafe3b4186f6b6457e060405160405180910390a35050565b5f6003821115611199578190505f6001600284611151919061149b565b61115b91906117d2565b90505b81811015611193578091506002818285611178919061149b565b61118291906117d2565b61118c919061149b565b905061115e565b506111a6565b5f82146111a557600190505b5b919050565b5f33905090565b5f819050919050565b6111c4816111b2565b82525050565b5f6040820190506111dd5f8301856111bb565b6111ea60208301846111bb565b9392505050565b5f6020820190506112045f8301846111bb565b92915050565b5f73ffffffffffffffffffffffffffffffffffffffff82169050919050565b5f819050919050565b5f61124c6112476112428461120a565b611229565b61120a565b9050919050565b5f61125d82611232565b9050919050565b5f61126e82611253565b9050919050565b61127e81611264565b82525050565b5f6020820190506112975f830184611275565b92915050565b5f80fd5b5f6112ab8261120a565b9050919050565b6112bb816112a1565b81146112c5575f80fd5b50565b5f813590506112d6816112b2565b92915050565b5f602082840312156112f1576112f061129d565b5b5f6112fe848285016112c8565b91505092915050565b611310816112a1565b82525050565b5f6020820190506113295f830184611307565b92915050565b611338816111b2565b8114611342575f80fd5b50565b5f813590506113538161132f565b92915050565b5f6020828403121561136e5761136d61129d565b5b5f61137b84828501611345565b91505092915050565b5f806040838503121561139a5761139961129d565b5b5f6113a785828601611345565b92505060206113b885828601611345565b9150509250929050565b5f80604083850312156113d8576113d761129d565b5b5f6113e5858286016112c8565b92505060206113f685828601611345565b9150509250929050565b7f4e487b71000000000000000000000000000000000000000000000000000000005f52601160045260245ffd5b5f611437826111b2565b9150611442836111b2565b9250828202611450816111b2565b9150828204841483151761146757611466611400565b5b5092915050565b7f4e487b71000000000000000000000000000000000000000000000000000000005f52601260045260245ffd5b5f6114a5826111b2565b91506114b0836111b2565b9250826114c0576114bf61146e565b5b828204905092915050565b5f82825260208201905092915050565b7f4c6971756964697479206d7573742062652067726561746572207468616e20305f82015250565b5f61150f6020836114cb565b915061151a826114db565b602082019050919050565b5f6020820190508181035f83015261153c81611503565b9050919050565b7f496e73756666696369656e74206c6971756964697479000000000000000000005f82015250565b5f6115776016836114cb565b915061158282611543565b602082019050919050565b5f6020820190508181035f8301526115a48161156b565b9050919050565b5f6115b5826111b2565b91506115c0836111b2565b92508282039050818111156115d8576115d7611400565b5b92915050565b5f6040820190506115f15f830185611307565b6115fe60208301846111bb565b9392505050565b5f8115159050919050565b61161981611605565b8114611623575f80fd5b50565b5f8151905061163481611610565b92915050565b5f6020828403121561164f5761164e61129d565b5b5f61165c84828501611626565b91505092915050565b7f546f6b656e31207472616e73666572206661696c6564000000000000000000005f82015250565b5f6116996016836114cb565b91506116a482611665565b602082019050919050565b5f6020820190508181035f8301526116c68161168d565b9050919050565b7f546f6b656e32207472616e73666572206661696c6564000000000000000000005f82015250565b5f6117016016836114cb565b915061170c826116cd565b602082019050919050565b5f6020820190508181035f83015261172e816116f5565b9050919050565b5f6060820190506117485f8301866111bb565b61175560208301856111bb565b61176260408301846111bb565b949350505050565b7f416d6f756e74206d7573742062652067726561746572207468616e20300000005f82015250565b5f61179e601d836114cb565b91506117a98261176a565b602082019050919050565b5f6020820190508181035f8301526117cb81611792565b9050919050565b5f6117dc826111b2565b91506117e7836111b2565b92508282019050808211156117ff576117fe611400565b5b92915050565b5f6060820190506118185f830186611307565b6118256020830185611307565b61183260408301846111bb565b949350505050565b5f815190506118488161132f565b92915050565b5f602082840312156118635761186261129d565b5b5f6118708482850161183a565b91505092915050565b7f496e73756666696369656e74206c697175696469747920666f722074686973205f8201527f7472616465000000000000000000000000000000000000000000000000000000602082015250565b5f6118d36025836114cb565b91506118de82611879565b604082019050919050565b5f6020820190508181035f830152611900816118c7565b9050919050565b7f496e70757420746f6b656e207472616e73666572206661696c656400000000005f82015250565b5f61193b601b836114cb565b915061194682611907565b602082019050919050565b5f6020820190508181035f8301526119688161192f565b9050919050565b7f4f757470757420746f6b656e207472616e73666572206661696c6564000000005f82015250565b5f6119a3601c836114cb565b91506119ae8261196f565b602082019050919050565b5f6020820190508181035f8301526119d081611997565b9050919050565b5f6080820190506119ea5f830187611307565b6119f760208301866111bb565b611a046040830185611307565b611a1160608301846111bb565b9594505050505056fea2646970667358221220ada592a175830e31a5e22cd032861d7aef6511cd97b89907ed579c2334dcfa8264736f6c63430008150033",
  "immutableReferences": {},
  "source": "// SPDX-License-Identifier: MIT\r\npragma solidity ^0.8.19;\r\n\r\nimport \"@openzeppelin/contracts/token/ERC20/IERC20.sol\";\r\nimport \"@openzeppelin/contracts/access/Ownable.sol\";\r\n\r\ncontract Dex is Ownable(msg.sender) {\r\n    IERC20 public token1;\r\n    IERC20 public token2;\r\n\r\n    uint256 public reserve1;\r\n    uint256 public reserve2;\r\n\r\n    uint256 public totalLiquidity;\r\n    mapping(address => uint256) public liquidity;\r\n\r\n    event LiquidityAdded(address indexed provider, uint256 amount1, uint256 amount2, uint256 liquidityMinted);\r\n    event LiquidityRemoved(address indexed provider, uint256 amount1, uint256 amount2, uint256 liquidityBurned);\r\n    event Swapped(address indexed swapper, address inputToken, uint256 inputAmount, address outputToken, uint256 outputAmount);\r\n\r\n    constructor(address _token1, address _token2) {\r\n        token1 = IERC20(_token1);\r\n        token2 = IERC20(_token2);\r\n    }\r\n\r\n    function addLiquidity(uint256 amount1, uint256 amount2) external returns (uint256 liquidityMinted) {\r\n        require(amount1 > 0 && amount2 > 0, \"Amount must be greater than 0\");\r\n\r\n        if (totalLiquidity == 0) {\r\n            liquidityMinted = sqrt(amount1 * amount2);\r\n        } else {\r\n            liquidityMinted = (amount1 * totalLiquidity) / reserve1;\r\n        }\r\n\r\n        liquidity[msg.sender] += liquidityMinted;\r\n        totalLiquidity += liquidityMinted;\r\n\r\n        reserve1 += amount1;\r\n        reserve2 += amount2;\r\n\r\n        require(token1.transferFrom(msg.sender, address(this), amount1), \"Token1 transfer failed\");\r\n        require(token2.transferFrom(msg.sender, address(this), amount2), \"Token2 transfer failed\");\r\n\r\n        emit LiquidityAdded(msg.sender, amount1, amount2, liquidityMinted);\r\n        return liquidityMinted;\r\n    }\r\n\r\n    function removeLiquidity(uint256 liquidityAmount) external returns (uint256 amount1, uint256 amount2) {\r\n        require(liquidityAmount > 0, \"Liquidity must be greater than 0\");\r\n        require(liquidity[msg.sender] >= liquidityAmount, \"Insufficient liquidity\");\r\n\r\n        amount1 = (liquidityAmount * reserve1) / totalLiquidity;\r\n        amount2 = (liquidityAmount * reserve2) / totalLiquidity;\r\n\r\n        liquidity[msg.sender] -= liquidityAmount;\r\n        totalLiquidity -= liquidityAmount;\r\n\r\n        reserve1 -= amount1;\r\n        reserve2 -= amount2;\r\n\r\n        require(token1.transfer(msg.sender, amount1), \"Token1 transfer failed\");\r\n        require(token2.transfer(msg.sender, amount2), \"Token2 transfer failed\");\r\n\r\n        emit LiquidityRemoved(msg.sender, amount1, amount2, liquidityAmount);\r\n    }\r\n\r\n    function swap(address inputToken, uint256 inputAmount) external returns (uint256 outputAmount) {\r\n        //require(inputToken == address(token1) || inputToken == address(token2), \"Invalid token\");\r\n\r\n        bool isToken1 = inputToken == address(token1);\r\n        (IERC20 input, IERC20 output, uint256 inputReserve, uint256 outputReserve) = isToken1 \r\n            ? (token1, token2, reserve1, reserve2) \r\n            : (token2, token1, reserve2, reserve1);\r\n\r\n        uint256 inputAmountWithFee = inputAmount * 997 / 1000; // Apply 0.3% fee\r\n        outputAmount = (inputAmountWithFee * outputReserve) / (inputReserve * 1000 + inputAmountWithFee);\r\n\r\n        require(outputAmount <= output.balanceOf(address(this)), \"Insufficient liquidity for this trade\");\r\n\r\n        require(input.transferFrom(msg.sender, address(this), inputAmount), \"Input token transfer failed\");\r\n        require(output.transfer(msg.sender, outputAmount), \"Output token transfer failed\");\r\n\r\n        if (isToken1) {\r\n            reserve1 += inputAmount;\r\n            reserve2 -= outputAmount;\r\n        } else {\r\n            reserve2 += inputAmount;\r\n            reserve1 -= outputAmount;\r\n        }\r\n\r\n        emit Swapped(msg.sender, inputToken, inputAmount, address(output), outputAmount);\r\n    }\r\n\r\n    function getSpotPrice(address inputToken) external view returns (uint256) {\r\n        //require(inputToken == address(token1) || inputToken == address(token2), \"Invalid token\");\r\n\r\n        if (inputToken == address(token1)) {\r\n            return (reserve2 * 1e18) / reserve1;\r\n        } else {\r\n            return (reserve1 * 1e18) / reserve2;\r\n        }\r\n    }\r\n\r\n    function getReserves() external view returns (uint256, uint256) {\r\n        return (reserve1, reserve2);\r\n    }\r\n\r\n    function sqrt(uint y) internal pure returns (uint z) {\r\n        if (y > 3) {\r\n            z = y;\r\n            uint x = y / 2 + 1;\r\n            while (x < z) {\r\n                z = x;\r\n                x = (y / x + x) / 2;\r\n            }\r\n        } else if (y != 0) {\r\n            z = 1;\r\n        }\r\n    }\r\n}\r\n",
  "sourcePath": "c:\\Users\\Andre\\Documents\\Exchange-Test\\contracts\\Dex.sol",
  "compiler": {
    "name": "solc",
    "version": "0.8.21+commit.d9974bed.Emscripten.clang"
  },
  "schemaVersion": "3.4.16",
  "updatedAt": "2024-06-14T23:40:49.728Z",
  "networkType": "ethereum",
  "devdoc": {
    "errors": {
      "OwnableInvalidOwner(address)": [
        {
          "details": "The owner is not a valid owner account. (eg. `address(0)`)"
        }
      ],
      "OwnableUnauthorizedAccount(address)": [
        {
          "details": "The caller account is not authorized to perform an operation."
        }
      ]
    },
    "kind": "dev",
    "methods": {
      "owner()": {
        "details": "Returns the address of the current owner."
      },
      "renounceOwnership()": {
        "details": "Leaves the contract without owner. It will not be possible to call `onlyOwner` functions. Can only be called by the current owner. NOTE: Renouncing ownership will leave the contract without an owner, thereby disabling any functionality that is only available to the owner."
      },
      "transferOwnership(address)": {
        "details": "Transfers ownership of the contract to a new account (`newOwner`). Can only be called by the current owner."
      }
    },
    "version": 1
  },
  "userdoc": {
    "kind": "user",
    "methods": {},
    "version": 1
  }
}