{
  "contractName": "Dex",
  "abi": [
    {
      "inputs": [
        {
          "internalType": "address",
          "name": "_token1",
          "type": "address"
        },
        {
          "internalType": "address",
          "name": "_token2",
          "type": "address"
        }
      ],
      "stateMutability": "nonpayable",
      "type": "constructor"
    },
    {
      "inputs": [
        {
          "internalType": "address",
          "name": "owner",
          "type": "address"
        }
      ],
      "name": "OwnableInvalidOwner",
      "type": "error"
    },
    {
      "inputs": [
        {
          "internalType": "address",
          "name": "account",
          "type": "address"
        }
      ],
      "name": "OwnableUnauthorizedAccount",
      "type": "error"
    },
    {
      "anonymous": false,
      "inputs": [
        {
          "indexed": true,
          "internalType": "address",
          "name": "provider",
          "type": "address"
        },
        {
          "indexed": false,
          "internalType": "uint256",
          "name": "amount1",
          "type": "uint256"
        },
        {
          "indexed": false,
          "internalType": "uint256",
          "name": "amount2",
          "type": "uint256"
        },
        {
          "indexed": false,
          "internalType": "uint256",
          "name": "liquidityMinted",
          "type": "uint256"
        }
      ],
      "name": "LiquidityAdded",
      "type": "event"
    },
    {
      "anonymous": false,
      "inputs": [
        {
          "indexed": true,
          "internalType": "address",
          "name": "provider",
          "type": "address"
        },
        {
          "indexed": false,
          "internalType": "uint256",
          "name": "amount1",
          "type": "uint256"
        },
        {
          "indexed": false,
          "internalType": "uint256",
          "name": "amount2",
          "type": "uint256"
        },
        {
          "indexed": false,
          "internalType": "uint256",
          "name": "liquidityBurned",
          "type": "uint256"
        }
      ],
      "name": "LiquidityRemoved",
      "type": "event"
    },
    {
      "anonymous": false,
      "inputs": [
        {
          "indexed": true,
          "internalType": "address",
          "name": "previousOwner",
          "type": "address"
        },
        {
          "indexed": true,
          "internalType": "address",
          "name": "newOwner",
          "type": "address"
        }
      ],
      "name": "OwnershipTransferred",
      "type": "event"
    },
    {
      "anonymous": false,
      "inputs": [
        {
          "indexed": true,
          "internalType": "address",
          "name": "swapper",
          "type": "address"
        },
        {
          "indexed": false,
          "internalType": "address",
          "name": "inputToken",
          "type": "address"
        },
        {
          "indexed": false,
          "internalType": "uint256",
          "name": "inputAmount",
          "type": "uint256"
        },
        {
          "indexed": false,
          "internalType": "address",
          "name": "outputToken",
          "type": "address"
        },
        {
          "indexed": false,
          "internalType": "uint256",
          "name": "outputAmount",
          "type": "uint256"
        }
      ],
      "name": "Swapped",
      "type": "event"
    },
    {
      "inputs": [
        {
          "internalType": "address",
          "name": "",
          "type": "address"
        }
      ],
      "name": "liquidity",
      "outputs": [
        {
          "internalType": "uint256",
          "name": "",
          "type": "uint256"
        }
      ],
      "stateMutability": "view",
      "type": "function"
    },
    {
      "inputs": [],
      "name": "owner",
      "outputs": [
        {
          "internalType": "address",
          "name": "",
          "type": "address"
        }
      ],
      "stateMutability": "view",
      "type": "function"
    },
    {
      "inputs": [],
      "name": "renounceOwnership",
      "outputs": [],
      "stateMutability": "nonpayable",
      "type": "function"
    },
    {
      "inputs": [],
      "name": "reserve1",
      "outputs": [
        {
          "internalType": "uint256",
          "name": "",
          "type": "uint256"
        }
      ],
      "stateMutability": "view",
      "type": "function"
    },
    {
      "inputs": [],
      "name": "reserve2",
      "outputs": [
        {
          "internalType": "uint256",
          "name": "",
          "type": "uint256"
        }
      ],
      "stateMutability": "view",
      "type": "function"
    },
    {
      "inputs": [],
      "name": "token1",
      "outputs": [
        {
          "internalType": "contract IERC20",
          "name": "",
          "type": "address"
        }
      ],
      "stateMutability": "view",
      "type": "function"
    },
    {
      "inputs": [],
      "name": "token2",
      "outputs": [
        {
          "internalType": "contract IERC20",
          "name": "",
          "type": "address"
        }
      ],
      "stateMutability": "view",
      "type": "function"
    },
    {
      "inputs": [],
      "name": "totalLiquidity",
      "outputs": [
        {
          "internalType": "uint256",
          "name": "",
          "type": "uint256"
        }
      ],
      "stateMutability": "view",
      "type": "function"
    },
    {
      "inputs": [
        {
          "internalType": "address",
          "name": "newOwner",
          "type": "address"
        }
      ],
      "name": "transferOwnership",
      "outputs": [],
      "stateMutability": "nonpayable",
      "type": "function"
    },
    {
      "inputs": [
        {
          "internalType": "uint256",
          "name": "amount1",
          "type": "uint256"
        },
        {
          "internalType": "uint256",
          "name": "amount2",
          "type": "uint256"
        }
      ],
      "name": "addLiquidity",
      "outputs": [
        {
          "internalType": "uint256",
          "name": "liquidityMinted",
          "type": "uint256"
        }
      ],
      "stateMutability": "nonpayable",
      "type": "function"
    },
    {
      "inputs": [
        {
          "internalType": "uint256",
          "name": "liquidityAmount",
          "type": "uint256"
        }
      ],
      "name": "removeLiquidity",
      "outputs": [
        {
          "internalType": "uint256",
          "name": "amount1",
          "type": "uint256"
        },
        {
          "internalType": "uint256",
          "name": "amount2",
          "type": "uint256"
        }
      ],
      "stateMutability": "nonpayable",
      "type": "function"
    },
    {
      "inputs": [
        {
          "internalType": "address",
          "name": "inputToken",
          "type": "address"
        },
        {
          "internalType": "uint256",
          "name": "inputAmount",
          "type": "uint256"
        }
      ],
      "name": "swap",
      "outputs": [
        {
          "internalType": "uint256",
          "name": "outputAmount",
          "type": "uint256"
        }
      ],
      "stateMutability": "nonpayable",
      "type": "function"
    },
    {
      "inputs": [
        {
          "internalType": "address",
          "name": "inputToken",
          "type": "address"
        }
      ],
      "name": "getSpotPrice",
      "outputs": [
        {
          "internalType": "uint256",
          "name": "",
          "type": "uint256"
        }
      ],
      "stateMutability": "view",
      "type": "function"
    },
    {
      "inputs": [],
      "name": "getReserves",
      "outputs": [
        {
          "internalType": "uint256",
          "name": "",
          "type": "uint256"
        },
        {
          "internalType": "uint256",
          "name": "",
          "type": "uint256"
        }
      ],
      "stateMutability": "view",
      "type": "function"
    }
  ],
  "bytecode": "0x608060405234801562000010575f80fd5b5060405162001f6d38038062001f6d83398181016040528101906200003691906200026a565b335f73ffffffffffffffffffffffffffffffffffffffff168173ffffffffffffffffffffffffffffffffffffffff1603620000aa575f6040517f1e4fbdf7000000000000000000000000000000000000000000000000000000008152600401620000a19190620002c0565b60405180910390fd5b620000bb816200014460201b60201c565b508160015f6101000a81548173ffffffffffffffffffffffffffffffffffffffff021916908373ffffffffffffffffffffffffffffffffffffffff1602179055508060025f6101000a81548173ffffffffffffffffffffffffffffffffffffffff021916908373ffffffffffffffffffffffffffffffffffffffff1602179055505050620002db565b5f805f9054906101000a900473ffffffffffffffffffffffffffffffffffffffff169050815f806101000a81548173ffffffffffffffffffffffffffffffffffffffff021916908373ffffffffffffffffffffffffffffffffffffffff1602179055508173ffffffffffffffffffffffffffffffffffffffff168173ffffffffffffffffffffffffffffffffffffffff167f8be0079c531659141344cd1fd0a4f28419497f9722a3daafe3b4186f6b6457e060405160405180910390a35050565b5f80fd5b5f73ffffffffffffffffffffffffffffffffffffffff82169050919050565b5f620002348262000209565b9050919050565b620002468162000228565b811462000251575f80fd5b50565b5f8151905062000264816200023b565b92915050565b5f806040838503121562000283576200028262000205565b5b5f620002928582860162000254565b9250506020620002a58582860162000254565b9150509250929050565b620002ba8162000228565b82525050565b5f602082019050620002d55f830184620002af565b92915050565b611c8480620002e95f395ff3fe608060405234801561000f575f80fd5b50600436106100e8575f3560e01c80638da5cb5b1161008a578063b8c876b111610064578063b8c876b11461023c578063d004f0f71461026c578063d21220a71461029c578063f2fde38b146102ba576100e8565b80638da5cb5b146101bd5780639c8f9f23146101db5780639cd441da1461020c576100e8565b80635a76f25e116100c65780635a76f25e146101475780635c0b9a2b146101655780635cd9e01914610183578063715018a6146101b3576100e8565b80630902f1ac146100ec57806315770f921461010b57806325be124e14610129575b5f80fd5b6100f46102d6565b604051610102929190611396565b60405180910390f35b6101136102e6565b60405161012091906113bd565b60405180910390f35b6101316102ec565b60405161013e9190611450565b60405180910390f35b61014f610311565b60405161015c91906113bd565b60405180910390f35b61016d610317565b60405161017a91906113bd565b60405180910390f35b61019d600480360381019061019891906114a8565b61031d565b6040516101aa91906113bd565b60405180910390f35b6101bb6104ad565b005b6101c56104c0565b6040516101d291906114e2565b60405180910390f35b6101f560048036038101906101f09190611525565b6104e7565b604051610203929190611396565b60405180910390f35b61022660048036038101906102219190611550565b61088d565b60405161023391906113bd565b60405180910390f35b610256600480360381019061025191906114a8565b610bca565b60405161026391906113bd565b60405180910390f35b6102866004803603810190610281919061158e565b610bdf565b60405161029391906113bd565b60405180910390f35b6102a461110f565b6040516102b19190611450565b60405180910390f35b6102d460048036038101906102cf91906114a8565b611134565b005b5f80600354600454915091509091565b60055481565b60025f9054906101000a900473ffffffffffffffffffffffffffffffffffffffff1681565b60035481565b60045481565b5f60015f9054906101000a900473ffffffffffffffffffffffffffffffffffffffff1673ffffffffffffffffffffffffffffffffffffffff168273ffffffffffffffffffffffffffffffffffffffff1614806103c5575060025f9054906101000a900473ffffffffffffffffffffffffffffffffffffffff1673ffffffffffffffffffffffffffffffffffffffff168273ffffffffffffffffffffffffffffffffffffffff16145b610404576040517f08c379a00000000000000000000000000000000000000000000000000000000081526004016103fb90611626565b60405180910390fd5b60015f9054906101000a900473ffffffffffffffffffffffffffffffffffffffff1673ffffffffffffffffffffffffffffffffffffffff168273ffffffffffffffffffffffffffffffffffffffff160361048257600354670de0b6b3a76400006004546104719190611671565b61047b91906116df565b90506104a8565b600454670de0b6b3a764000060035461049b9190611671565b6104a591906116df565b90505b919050565b6104b56111b8565b6104be5f61123f565b565b5f805f9054906101000a900473ffffffffffffffffffffffffffffffffffffffff16905090565b5f805f831161052b576040517f08c379a000000000000000000000000000000000000000000000000000000000815260040161052290611759565b60405180910390fd5b8260065f3373ffffffffffffffffffffffffffffffffffffffff1673ffffffffffffffffffffffffffffffffffffffff1681526020019081526020015f205410156105ab576040517f08c379a00000000000000000000000000000000000000000000000000000000081526004016105a2906117c1565b60405180910390fd5b600554600354846105bc9190611671565b6105c691906116df565b9150600554600454846105d99190611671565b6105e391906116df565b90508260065f3373ffffffffffffffffffffffffffffffffffffffff1673ffffffffffffffffffffffffffffffffffffffff1681526020019081526020015f205f82825461063191906117df565b925050819055508260055f82825461064991906117df565b925050819055508160035f82825461066191906117df565b925050819055508060045f82825461067991906117df565b9250508190555060015f9054906101000a900473ffffffffffffffffffffffffffffffffffffffff1673ffffffffffffffffffffffffffffffffffffffff1663a9059cbb33846040518363ffffffff1660e01b81526004016106dc929190611812565b6020604051808303815f875af11580156106f8573d5f803e3d5ffd5b505050506040513d601f19601f8201168201806040525081019061071c919061186e565b61075b576040517f08c379a0000000000000000000000000000000000000000000000000000000008152600401610752906118e3565b60405180910390fd5b60025f9054906101000a900473ffffffffffffffffffffffffffffffffffffffff1673ffffffffffffffffffffffffffffffffffffffff1663a9059cbb33836040518363ffffffff1660e01b81526004016107b7929190611812565b6020604051808303815f875af11580156107d3573d5f803e3d5ffd5b505050506040513d601f19601f820116820180604052508101906107f7919061186e565b610836576040517f08c379a000000000000000000000000000000000000000000000000000000000815260040161082d9061194b565b60405180910390fd5b3373ffffffffffffffffffffffffffffffffffffffff167f1dc8bb69df2b8e91fbdcbfcf93d951b3f0000f085a95fe3f7946d6161439245d83838660405161088093929190611969565b60405180910390a2915091565b5f808311801561089c57505f82115b6108db576040517f08c379a00000000000000000000000000000000000000000000000000000000081526004016108d2906119e8565b60405180910390fd5b5f600554036108ff576108f882846108f39190611671565b611300565b905061091d565b600354600554846109109190611671565b61091a91906116df565b90505b8060065f3373ffffffffffffffffffffffffffffffffffffffff1673ffffffffffffffffffffffffffffffffffffffff1681526020019081526020015f205f8282546109699190611a06565b925050819055508060055f8282546109819190611a06565b925050819055508260035f8282546109999190611a06565b925050819055508160045f8282546109b19190611a06565b9250508190555060015f9054906101000a900473ffffffffffffffffffffffffffffffffffffffff1673ffffffffffffffffffffffffffffffffffffffff166323b872dd3330866040518463ffffffff1660e01b8152600401610a1693929190611a39565b6020604051808303815f875af1158015610a32573d5f803e3d5ffd5b505050506040513d601f19601f82011682018060405250810190610a56919061186e565b610a95576040517f08c379a0000000000000000000000000000000000000000000000000000000008152600401610a8c906118e3565b60405180910390fd5b60025f9054906101000a900473ffffffffffffffffffffffffffffffffffffffff1673ffffffffffffffffffffffffffffffffffffffff166323b872dd3330856040518463ffffffff1660e01b8152600401610af393929190611a39565b6020604051808303815f875af1158015610b0f573d5f803e3d5ffd5b505050506040513d601f19601f82011682018060405250810190610b33919061186e565b610b72576040517f08c379a0000000000000000000000000000000000000000000000000000000008152600401610b699061194b565b60405180910390fd5b3373ffffffffffffffffffffffffffffffffffffffff167f64b83944e79c3ce8d4c297411de637c3e102d064677aac0c163976ebdcd6f50e848484604051610bbc93929190611969565b60405180910390a292915050565b6006602052805f5260405f205f915090505481565b5f60015f9054906101000a900473ffffffffffffffffffffffffffffffffffffffff1673ffffffffffffffffffffffffffffffffffffffff168373ffffffffffffffffffffffffffffffffffffffff161480610c87575060025f9054906101000a900473ffffffffffffffffffffffffffffffffffffffff1673ffffffffffffffffffffffffffffffffffffffff168373ffffffffffffffffffffffffffffffffffffffff16145b610cc6576040517f08c379a0000000000000000000000000000000000000000000000000000000008152600401610cbd90611626565b60405180910390fd5b5f60015f9054906101000a900473ffffffffffffffffffffffffffffffffffffffff1673ffffffffffffffffffffffffffffffffffffffff168473ffffffffffffffffffffffffffffffffffffffff161490505f805f8084610d715760025f9054906101000a900473ffffffffffffffffffffffffffffffffffffffff1660015f9054906101000a900473ffffffffffffffffffffffffffffffffffffffff16600454600354610dbc565b60015f9054906101000a900473ffffffffffffffffffffffffffffffffffffffff1660025f9054906101000a900473ffffffffffffffffffffffffffffffffffffffff166003546004545b93509350935093505f6103e86103e589610dd69190611671565b610de091906116df565b9050806103e884610df19190611671565b610dfb9190611a06565b8282610e079190611671565b610e1191906116df565b96508373ffffffffffffffffffffffffffffffffffffffff166370a08231306040518263ffffffff1660e01b8152600401610e4c91906114e2565b602060405180830381865afa158015610e67573d5f803e3d5ffd5b505050506040513d601f19601f82011682018060405250810190610e8b9190611a82565b871115610ecd576040517f08c379a0000000000000000000000000000000000000000000000000000000008152600401610ec490611b1d565b60405180910390fd5b8473ffffffffffffffffffffffffffffffffffffffff166323b872dd33308b6040518463ffffffff1660e01b8152600401610f0a93929190611a39565b6020604051808303815f875af1158015610f26573d5f803e3d5ffd5b505050506040513d601f19601f82011682018060405250810190610f4a919061186e565b610f89576040517f08c379a0000000000000000000000000000000000000000000000000000000008152600401610f8090611b85565b60405180910390fd5b8373ffffffffffffffffffffffffffffffffffffffff1663a9059cbb33896040518363ffffffff1660e01b8152600401610fc4929190611812565b6020604051808303815f875af1158015610fe0573d5f803e3d5ffd5b505050506040513d601f19601f82011682018060405250810190611004919061186e565b611043576040517f08c379a000000000000000000000000000000000000000000000000000000000815260040161103a90611bed565b60405180910390fd5b851561107e578760035f82825461105a9190611a06565b925050819055508660045f82825461107291906117df565b925050819055506110af565b8760045f82825461108f9190611a06565b925050819055508660035f8282546110a791906117df565b925050819055505b3373ffffffffffffffffffffffffffffffffffffffff167f692315744755ee6d80decaeb993d4b1bb95ff5db042cc47b32d5a7d858b019028a8a878b6040516110fb9493929190611c0b565b60405180910390a250505050505092915050565b60015f9054906101000a900473ffffffffffffffffffffffffffffffffffffffff1681565b61113c6111b8565b5f73ffffffffffffffffffffffffffffffffffffffff168173ffffffffffffffffffffffffffffffffffffffff16036111ac575f6040517f1e4fbdf70000000000000000000000000000000000000000000000000000000081526004016111a391906114e2565b60405180910390fd5b6111b58161123f565b50565b6111c0611377565b73ffffffffffffffffffffffffffffffffffffffff166111de6104c0565b73ffffffffffffffffffffffffffffffffffffffff161461123d57611201611377565b6040517f118cdaa700000000000000000000000000000000000000000000000000000000815260040161123491906114e2565b60405180910390fd5b565b5f805f9054906101000a900473ffffffffffffffffffffffffffffffffffffffff169050815f806101000a81548173ffffffffffffffffffffffffffffffffffffffff021916908373ffffffffffffffffffffffffffffffffffffffff1602179055508173ffffffffffffffffffffffffffffffffffffffff168173ffffffffffffffffffffffffffffffffffffffff167f8be0079c531659141344cd1fd0a4f28419497f9722a3daafe3b4186f6b6457e060405160405180910390a35050565b5f6003821115611365578190505f600160028461131d91906116df565b6113279190611a06565b90505b8181101561135f57809150600281828561134491906116df565b61134e9190611a06565b61135891906116df565b905061132a565b50611372565b5f821461137157600190505b5b919050565b5f33905090565b5f819050919050565b6113908161137e565b82525050565b5f6040820190506113a95f830185611387565b6113b66020830184611387565b9392505050565b5f6020820190506113d05f830184611387565b92915050565b5f73ffffffffffffffffffffffffffffffffffffffff82169050919050565b5f819050919050565b5f61141861141361140e846113d6565b6113f5565b6113d6565b9050919050565b5f611429826113fe565b9050919050565b5f61143a8261141f565b9050919050565b61144a81611430565b82525050565b5f6020820190506114635f830184611441565b92915050565b5f80fd5b5f611477826113d6565b9050919050565b6114878161146d565b8114611491575f80fd5b50565b5f813590506114a28161147e565b92915050565b5f602082840312156114bd576114bc611469565b5b5f6114ca84828501611494565b91505092915050565b6114dc8161146d565b82525050565b5f6020820190506114f55f8301846114d3565b92915050565b6115048161137e565b811461150e575f80fd5b50565b5f8135905061151f816114fb565b92915050565b5f6020828403121561153a57611539611469565b5b5f61154784828501611511565b91505092915050565b5f806040838503121561156657611565611469565b5b5f61157385828601611511565b925050602061158485828601611511565b9150509250929050565b5f80604083850312156115a4576115a3611469565b5b5f6115b185828601611494565b92505060206115c285828601611511565b9150509250929050565b5f82825260208201905092915050565b7f496e76616c696420746f6b656e000000000000000000000000000000000000005f82015250565b5f611610600d836115cc565b915061161b826115dc565b602082019050919050565b5f6020820190508181035f83015261163d81611604565b9050919050565b7f4e487b71000000000000000000000000000000000000000000000000000000005f52601160045260245ffd5b5f61167b8261137e565b91506116868361137e565b92508282026116948161137e565b915082820484148315176116ab576116aa611644565b5b5092915050565b7f4e487b71000000000000000000000000000000000000000000000000000000005f52601260045260245ffd5b5f6116e98261137e565b91506116f48361137e565b925082611704576117036116b2565b5b828204905092915050565b7f4c6971756964697479206d7573742062652067726561746572207468616e20305f82015250565b5f6117436020836115cc565b915061174e8261170f565b602082019050919050565b5f6020820190508181035f83015261177081611737565b9050919050565b7f496e73756666696369656e74206c6971756964697479000000000000000000005f82015250565b5f6117ab6016836115cc565b91506117b682611777565b602082019050919050565b5f6020820190508181035f8301526117d88161179f565b9050919050565b5f6117e98261137e565b91506117f48361137e565b925082820390508181111561180c5761180b611644565b5b92915050565b5f6040820190506118255f8301856114d3565b6118326020830184611387565b9392505050565b5f8115159050919050565b61184d81611839565b8114611857575f80fd5b50565b5f8151905061186881611844565b92915050565b5f6020828403121561188357611882611469565b5b5f6118908482850161185a565b91505092915050565b7f546f6b656e31207472616e73666572206661696c6564000000000000000000005f82015250565b5f6118cd6016836115cc565b91506118d882611899565b602082019050919050565b5f6020820190508181035f8301526118fa816118c1565b9050919050565b7f546f6b656e32207472616e73666572206661696c6564000000000000000000005f82015250565b5f6119356016836115cc565b915061194082611901565b602082019050919050565b5f6020820190508181035f83015261196281611929565b9050919050565b5f60608201905061197c5f830186611387565b6119896020830185611387565b6119966040830184611387565b949350505050565b7f416d6f756e74206d7573742062652067726561746572207468616e20300000005f82015250565b5f6119d2601d836115cc565b91506119dd8261199e565b602082019050919050565b5f6020820190508181035f8301526119ff816119c6565b9050919050565b5f611a108261137e565b9150611a1b8361137e565b9250828201905080821115611a3357611a32611644565b5b92915050565b5f606082019050611a4c5f8301866114d3565b611a5960208301856114d3565b611a666040830184611387565b949350505050565b5f81519050611a7c816114fb565b92915050565b5f60208284031215611a9757611a96611469565b5b5f611aa484828501611a6e565b91505092915050565b7f496e73756666696369656e74206c697175696469747920666f722074686973205f8201527f7472616465000000000000000000000000000000000000000000000000000000602082015250565b5f611b076025836115cc565b9150611b1282611aad565b604082019050919050565b5f6020820190508181035f830152611b3481611afb565b9050919050565b7f496e70757420746f6b656e207472616e73666572206661696c656400000000005f82015250565b5f611b6f601b836115cc565b9150611b7a82611b3b565b602082019050919050565b5f6020820190508181035f830152611b9c81611b63565b9050919050565b7f4f757470757420746f6b656e207472616e73666572206661696c6564000000005f82015250565b5f611bd7601c836115cc565b9150611be282611ba3565b602082019050919050565b5f6020820190508181035f830152611c0481611bcb565b9050919050565b5f608082019050611c1e5f8301876114d3565b611c2b6020830186611387565b611c3860408301856114d3565b611c456060830184611387565b9594505050505056fea26469706673582212203ea9eb05a07ced82d0199f09f5feec4177a03ee83e342fa19d65325048c6fb2564736f6c63430008150033",
  "immutableReferences": {},
  "source": "// SPDX-License-Identifier: MIT\r\npragma solidity ^0.8.19;\r\n\r\nimport \"@openzeppelin/contracts/token/ERC20/IERC20.sol\";\r\nimport \"@openzeppelin/contracts/access/Ownable.sol\";\r\n\r\ncontract Dex is Ownable(msg.sender) {\r\n    IERC20 public token1;\r\n    IERC20 public token2;\r\n\r\n    uint256 public reserve1;\r\n    uint256 public reserve2;\r\n\r\n    uint256 public totalLiquidity;\r\n    mapping(address => uint256) public liquidity;\r\n\r\n    event LiquidityAdded(address indexed provider, uint256 amount1, uint256 amount2, uint256 liquidityMinted);\r\n    event LiquidityRemoved(address indexed provider, uint256 amount1, uint256 amount2, uint256 liquidityBurned);\r\n    event Swapped(address indexed swapper, address inputToken, uint256 inputAmount, address outputToken, uint256 outputAmount);\r\n\r\n    constructor(address _token1, address _token2) {\r\n        token1 = IERC20(_token1);\r\n        token2 = IERC20(_token2);\r\n    }\r\n\r\n    function addLiquidity(uint256 amount1, uint256 amount2) external returns (uint256 liquidityMinted) {\r\n        require(amount1 > 0 && amount2 > 0, \"Amount must be greater than 0\");\r\n\r\n        if (totalLiquidity == 0) {\r\n            liquidityMinted = sqrt(amount1 * amount2);\r\n        } else {\r\n            liquidityMinted = (amount1 * totalLiquidity) / reserve1;\r\n        }\r\n\r\n        liquidity[msg.sender] += liquidityMinted;\r\n        totalLiquidity += liquidityMinted;\r\n\r\n        reserve1 += amount1;\r\n        reserve2 += amount2;\r\n\r\n        require(token1.transferFrom(msg.sender, address(this), amount1), \"Token1 transfer failed\");\r\n        require(token2.transferFrom(msg.sender, address(this), amount2), \"Token2 transfer failed\");\r\n\r\n        emit LiquidityAdded(msg.sender, amount1, amount2, liquidityMinted);\r\n        return liquidityMinted;\r\n    }\r\n\r\n    function removeLiquidity(uint256 liquidityAmount) external returns (uint256 amount1, uint256 amount2) {\r\n        require(liquidityAmount > 0, \"Liquidity must be greater than 0\");\r\n        require(liquidity[msg.sender] >= liquidityAmount, \"Insufficient liquidity\");\r\n\r\n        amount1 = (liquidityAmount * reserve1) / totalLiquidity;\r\n        amount2 = (liquidityAmount * reserve2) / totalLiquidity;\r\n\r\n        liquidity[msg.sender] -= liquidityAmount;\r\n        totalLiquidity -= liquidityAmount;\r\n\r\n        reserve1 -= amount1;\r\n        reserve2 -= amount2;\r\n\r\n        require(token1.transfer(msg.sender, amount1), \"Token1 transfer failed\");\r\n        require(token2.transfer(msg.sender, amount2), \"Token2 transfer failed\");\r\n\r\n        emit LiquidityRemoved(msg.sender, amount1, amount2, liquidityAmount);\r\n    }\r\n\r\n    function swap(address inputToken, uint256 inputAmount) external returns (uint256 outputAmount) {\r\n        require(inputToken == address(token1) || inputToken == address(token2), \"Invalid token\");\r\n\r\n        bool isToken1 = inputToken == address(token1);\r\n        (IERC20 input, IERC20 output, uint256 inputReserve, uint256 outputReserve) = isToken1 \r\n            ? (token1, token2, reserve1, reserve2) \r\n            : (token2, token1, reserve2, reserve1);\r\n\r\n        uint256 inputAmountWithFee = inputAmount * 997 / 1000; // Apply 0.3% fee\r\n        outputAmount = (inputAmountWithFee * outputReserve) / (inputReserve * 1000 + inputAmountWithFee);\r\n\r\n        require(outputAmount <= output.balanceOf(address(this)), \"Insufficient liquidity for this trade\");\r\n\r\n        require(input.transferFrom(msg.sender, address(this), inputAmount), \"Input token transfer failed\");\r\n        require(output.transfer(msg.sender, outputAmount), \"Output token transfer failed\");\r\n\r\n        if (isToken1) {\r\n            reserve1 += inputAmount;\r\n            reserve2 -= outputAmount;\r\n        } else {\r\n            reserve2 += inputAmount;\r\n            reserve1 -= outputAmount;\r\n        }\r\n\r\n        emit Swapped(msg.sender, inputToken, inputAmount, address(output), outputAmount);\r\n    }\r\n\r\n    function getSpotPrice(address inputToken) external view returns (uint256) {\r\n        require(inputToken == address(token1) || inputToken == address(token2), \"Invalid token\");\r\n\r\n        if (inputToken == address(token1)) {\r\n            return (reserve2 * 1e18) / reserve1;\r\n        } else {\r\n            return (reserve1 * 1e18) / reserve2;\r\n        }\r\n    }\r\n\r\n    function getReserves() external view returns (uint256, uint256) {\r\n        return (reserve1, reserve2);\r\n    }\r\n\r\n    function sqrt(uint y) internal pure returns (uint z) {\r\n        if (y > 3) {\r\n            z = y;\r\n            uint x = y / 2 + 1;\r\n            while (x < z) {\r\n                z = x;\r\n                x = (y / x + x) / 2;\r\n            }\r\n        } else if (y != 0) {\r\n            z = 1;\r\n        }\r\n    }\r\n}\r\n",
  "sourcePath": "C:\\Users\\Andre\\Documents\\Exchange-Test\\contracts\\Dex.sol",
  "compiler": {
    "name": "solc",
    "version": "0.8.21+commit.d9974bed.Emscripten.clang"
  },
  "schemaVersion": "3.4.16",
  "updatedAt": "2024-06-15T22:09:20.864Z",
  "devdoc": {
    "errors": {
      "OwnableInvalidOwner(address)": [
        {
          "details": "The owner is not a valid owner account. (eg. `address(0)`)"
        }
      ],
      "OwnableUnauthorizedAccount(address)": [
        {
          "details": "The caller account is not authorized to perform an operation."
        }
      ]
    },
    "kind": "dev",
    "methods": {
      "owner()": {
        "details": "Returns the address of the current owner."
      },
      "renounceOwnership()": {
        "details": "Leaves the contract without owner. It will not be possible to call `onlyOwner` functions. Can only be called by the current owner. NOTE: Renouncing ownership will leave the contract without an owner, thereby disabling any functionality that is only available to the owner."
      },
      "transferOwnership(address)": {
        "details": "Transfers ownership of the contract to a new account (`newOwner`). Can only be called by the current owner."
      }
    },
    "version": 1
  },
  "userdoc": {
    "kind": "user",
    "methods": {},
    "version": 1
  }
}