{
  "contractName": "Dex",
  "abi": [
    {
      "inputs": [
        {
          "internalType": "address",
          "name": "_token1",
          "type": "address"
        },
        {
          "internalType": "address",
          "name": "_token2",
          "type": "address"
        }
      ],
      "stateMutability": "nonpayable",
      "type": "constructor"
    },
    {
      "inputs": [],
      "name": "reserve1",
      "outputs": [
        {
          "internalType": "uint256",
          "name": "",
          "type": "uint256"
        }
      ],
      "stateMutability": "view",
      "type": "function"
    },
    {
      "inputs": [],
      "name": "reserve2",
      "outputs": [
        {
          "internalType": "uint256",
          "name": "",
          "type": "uint256"
        }
      ],
      "stateMutability": "view",
      "type": "function"
    },
    {
      "inputs": [],
      "name": "token1",
      "outputs": [
        {
          "internalType": "contract IERC20",
          "name": "",
          "type": "address"
        }
      ],
      "stateMutability": "view",
      "type": "function"
    },
    {
      "inputs": [],
      "name": "token2",
      "outputs": [
        {
          "internalType": "contract IERC20",
          "name": "",
          "type": "address"
        }
      ],
      "stateMutability": "view",
      "type": "function"
    },
    {
      "inputs": [
        {
          "internalType": "uint256",
          "name": "amount1",
          "type": "uint256"
        },
        {
          "internalType": "uint256",
          "name": "amount2",
          "type": "uint256"
        }
      ],
      "name": "addLiquidity",
      "outputs": [],
      "stateMutability": "nonpayable",
      "type": "function"
    },
    {
      "inputs": [
        {
          "internalType": "uint256",
          "name": "amount1",
          "type": "uint256"
        },
        {
          "internalType": "uint256",
          "name": "amount2",
          "type": "uint256"
        }
      ],
      "name": "removeLiquidity",
      "outputs": [],
      "stateMutability": "nonpayable",
      "type": "function"
    },
    {
      "inputs": [
        {
          "internalType": "address",
          "name": "inputToken",
          "type": "address"
        },
        {
          "internalType": "uint256",
          "name": "inputAmount",
          "type": "uint256"
        }
      ],
      "name": "swap",
      "outputs": [],
      "stateMutability": "nonpayable",
      "type": "function"
    }
  ],
  "bytecode": "0x608060405234801561000f575f80fd5b5060405162000eb638038062000eb683398181016040528101906100339190610117565b815f806101000a81548173ffffffffffffffffffffffffffffffffffffffff021916908373ffffffffffffffffffffffffffffffffffffffff1602179055508060015f6101000a81548173ffffffffffffffffffffffffffffffffffffffff021916908373ffffffffffffffffffffffffffffffffffffffff1602179055505050610155565b5f80fd5b5f73ffffffffffffffffffffffffffffffffffffffff82169050919050565b5f6100e6826100bd565b9050919050565b6100f6816100dc565b8114610100575f80fd5b50565b5f81519050610111816100ed565b92915050565b5f806040838503121561012d5761012c6100b9565b5b5f61013a85828601610103565b925050602061014b85828601610103565b9150509250929050565b610d5380620001635f395ff3fe608060405234801561000f575f80fd5b506004361061007b575f3560e01c80639cd441da116100595780639cd441da146100d95780639d7de6b3146100f5578063d004f0f714610111578063d21220a71461012d5761007b565b806325be124e1461007f5780635a76f25e1461009d5780635c0b9a2b146100bb575b5f80fd5b61008761014b565b6040516100949190610912565b60405180910390f35b6100a5610170565b6040516100b29190610943565b60405180910390f35b6100c3610176565b6040516100d09190610943565b60405180910390f35b6100f360048036038101906100ee919061098a565b61017c565b005b61010f600480360381019061010a919061098a565b6102ec565b005b61012b60048036038101906101269190610a03565b6104e2565b005b610135610875565b6040516101429190610912565b60405180910390f35b60015f9054906101000a900473ffffffffffffffffffffffffffffffffffffffff1681565b60025481565b60035481565b5f8054906101000a900473ffffffffffffffffffffffffffffffffffffffff1673ffffffffffffffffffffffffffffffffffffffff166323b872dd3330856040518463ffffffff1660e01b81526004016101d893929190610a50565b6020604051808303815f875af11580156101f4573d5f803e3d5ffd5b505050506040513d601f19601f820116820180604052508101906102189190610aba565b5060015f9054906101000a900473ffffffffffffffffffffffffffffffffffffffff1673ffffffffffffffffffffffffffffffffffffffff166323b872dd3330846040518463ffffffff1660e01b815260040161027793929190610a50565b6020604051808303815f875af1158015610293573d5f803e3d5ffd5b505050506040513d601f19601f820116820180604052508101906102b79190610aba565b508160025f8282546102c99190610b12565b925050819055508060035f8282546102e19190610b12565b925050819055505050565b816002541015610331576040517f08c379a000000000000000000000000000000000000000000000000000000000815260040161032890610b9f565b60405180910390fd5b806003541015610376576040517f08c379a000000000000000000000000000000000000000000000000000000000815260040161036d90610b9f565b60405180910390fd5b5f8054906101000a900473ffffffffffffffffffffffffffffffffffffffff1673ffffffffffffffffffffffffffffffffffffffff1663a9059cbb33846040518363ffffffff1660e01b81526004016103d0929190610bbd565b6020604051808303815f875af11580156103ec573d5f803e3d5ffd5b505050506040513d601f19601f820116820180604052508101906104109190610aba565b5060015f9054906101000a900473ffffffffffffffffffffffffffffffffffffffff1673ffffffffffffffffffffffffffffffffffffffff1663a9059cbb33836040518363ffffffff1660e01b815260040161046d929190610bbd565b6020604051808303815f875af1158015610489573d5f803e3d5ffd5b505050506040513d601f19601f820116820180604052508101906104ad9190610aba565b508160025f8282546104bf9190610be4565b925050819055508060035f8282546104d79190610be4565b925050819055505050565b5f8054906101000a900473ffffffffffffffffffffffffffffffffffffffff1673ffffffffffffffffffffffffffffffffffffffff168273ffffffffffffffffffffffffffffffffffffffff161480610587575060015f9054906101000a900473ffffffffffffffffffffffffffffffffffffffff1673ffffffffffffffffffffffffffffffffffffffff168273ffffffffffffffffffffffffffffffffffffffff16145b6105c6576040517f08c379a00000000000000000000000000000000000000000000000000000000081526004016105bd90610c61565b60405180910390fd5b5f805f9054906101000a900473ffffffffffffffffffffffffffffffffffffffff1673ffffffffffffffffffffffffffffffffffffffff168373ffffffffffffffffffffffffffffffffffffffff161490505f816106455760015f9054906101000a900473ffffffffffffffffffffffffffffffffffffffff16610666565b5f8054906101000a900473ffffffffffffffffffffffffffffffffffffffff165b90505f82610693575f8054906101000a900473ffffffffffffffffffffffffffffffffffffffff166106b6565b60015f9054906101000a900473ffffffffffffffffffffffffffffffffffffffff165b90505f836106c6576003546106ca565b6002545b90505f846106da576002546106de565b6003545b90505f86836106ed9190610b12565b82886106f99190610c7f565b6107039190610ced565b90508473ffffffffffffffffffffffffffffffffffffffff166323b872dd33308a6040518463ffffffff1660e01b815260040161074293929190610a50565b6020604051808303815f875af115801561075e573d5f803e3d5ffd5b505050506040513d601f19601f820116820180604052508101906107829190610aba565b508373ffffffffffffffffffffffffffffffffffffffff1663a9059cbb33836040518363ffffffff1660e01b81526004016107be929190610bbd565b6020604051808303815f875af11580156107da573d5f803e3d5ffd5b505050506040513d601f19601f820116820180604052508101906107fe9190610aba565b50851561083a578660025f8282546108169190610b12565b925050819055508060035f82825461082e9190610be4565b9250508190555061086b565b8660035f82825461084b9190610b12565b925050819055508060025f8282546108639190610be4565b925050819055505b5050505050505050565b5f8054906101000a900473ffffffffffffffffffffffffffffffffffffffff1681565b5f73ffffffffffffffffffffffffffffffffffffffff82169050919050565b5f819050919050565b5f6108da6108d56108d084610898565b6108b7565b610898565b9050919050565b5f6108eb826108c0565b9050919050565b5f6108fc826108e1565b9050919050565b61090c816108f2565b82525050565b5f6020820190506109255f830184610903565b92915050565b5f819050919050565b61093d8161092b565b82525050565b5f6020820190506109565f830184610934565b92915050565b5f80fd5b6109698161092b565b8114610973575f80fd5b50565b5f8135905061098481610960565b92915050565b5f80604083850312156109a05761099f61095c565b5b5f6109ad85828601610976565b92505060206109be85828601610976565b9150509250929050565b5f6109d282610898565b9050919050565b6109e2816109c8565b81146109ec575f80fd5b50565b5f813590506109fd816109d9565b92915050565b5f8060408385031215610a1957610a1861095c565b5b5f610a26858286016109ef565b9250506020610a3785828601610976565b9150509250929050565b610a4a816109c8565b82525050565b5f606082019050610a635f830186610a41565b610a706020830185610a41565b610a7d6040830184610934565b949350505050565b5f8115159050919050565b610a9981610a85565b8114610aa3575f80fd5b50565b5f81519050610ab481610a90565b92915050565b5f60208284031215610acf57610ace61095c565b5b5f610adc84828501610aa6565b91505092915050565b7f4e487b71000000000000000000000000000000000000000000000000000000005f52601160045260245ffd5b5f610b1c8261092b565b9150610b278361092b565b9250828201905080821115610b3f57610b3e610ae5565b5b92915050565b5f82825260208201905092915050565b7f496e73756666696369656e74206c6971756964697479000000000000000000005f82015250565b5f610b89601683610b45565b9150610b9482610b55565b602082019050919050565b5f6020820190508181035f830152610bb681610b7d565b9050919050565b5f604082019050610bd05f830185610a41565b610bdd6020830184610934565b9392505050565b5f610bee8261092b565b9150610bf98361092b565b9250828203905081811115610c1157610c10610ae5565b5b92915050565b7f496e76616c696420746f6b656e000000000000000000000000000000000000005f82015250565b5f610c4b600d83610b45565b9150610c5682610c17565b602082019050919050565b5f6020820190508181035f830152610c7881610c3f565b9050919050565b5f610c898261092b565b9150610c948361092b565b9250828202610ca28161092b565b91508282048414831517610cb957610cb8610ae5565b5b5092915050565b7f4e487b71000000000000000000000000000000000000000000000000000000005f52601260045260245ffd5b5f610cf78261092b565b9150610d028361092b565b925082610d1257610d11610cc0565b5b82820490509291505056fea2646970667358221220445322ed8228f22d6c24f13345b048609ee5e62752194ab5dc801d1eeccd771664736f6c63430008150033",
  "immutableReferences": {},
  "source": "// contracts/Dex.sol\r\npragma solidity ^0.8.0;\r\n\r\nimport \"@openzeppelin/contracts/token/ERC20/IERC20.sol\";\r\n\r\ncontract Dex {\r\n    IERC20 public token1;\r\n    IERC20 public token2;\r\n\r\n    uint256 public reserve1;\r\n    uint256 public reserve2;\r\n\r\n    constructor(address _token1, address _token2) {\r\n        token1 = IERC20(_token1);\r\n        token2 = IERC20(_token2);\r\n    }\r\n\r\n    function addLiquidity(uint256 amount1, uint256 amount2) public {\r\n        token1.transferFrom(msg.sender, address(this), amount1);\r\n        token2.transferFrom(msg.sender, address(this), amount2);\r\n\r\n        reserve1 += amount1;\r\n        reserve2 += amount2;\r\n    }\r\n\r\n    function removeLiquidity(uint256 amount1, uint256 amount2) public {\r\n        require(reserve1 >= amount1, \"Insufficient liquidity\");\r\n        require(reserve2 >= amount2, \"Insufficient liquidity\");\r\n\r\n        token1.transfer(msg.sender, amount1);\r\n        token2.transfer(msg.sender, amount2);\r\n\r\n        reserve1 -= amount1;\r\n        reserve2 -= amount2;\r\n    }\r\n\r\n    function swap(address inputToken, uint256 inputAmount) public {\r\n        require(inputToken == address(token1) || inputToken == address(token2), \"Invalid token\");\r\n\r\n        bool isInputToken1 = inputToken == address(token1);\r\n        IERC20 input = isInputToken1 ? token1 : token2;\r\n        IERC20 output = isInputToken1 ? token2 : token1;\r\n\r\n        uint256 inputReserve = isInputToken1 ? reserve1 : reserve2;\r\n        uint256 outputReserve = isInputToken1 ? reserve2 : reserve1;\r\n\r\n        uint256 outputAmount = (inputAmount * outputReserve) / (inputReserve + inputAmount);\r\n\r\n        input.transferFrom(msg.sender, address(this), inputAmount);\r\n        output.transfer(msg.sender, outputAmount);\r\n\r\n        if (isInputToken1) {\r\n            reserve1 += inputAmount;\r\n            reserve2 -= outputAmount;\r\n        } else {\r\n            reserve2 += inputAmount;\r\n            reserve1 -= outputAmount;\r\n        }\r\n    }\r\n}\r\n",
  "sourcePath": "C:\\Users\\Andre\\Documents\\Exchange-Test\\contracts\\Dex.sol",
  "compiler": {
    "name": "solc",
    "version": "0.8.21+commit.d9974bed.Emscripten.clang"
  },
  "schemaVersion": "3.4.16",
  "updatedAt": "2024-06-13T00:40:27.498Z",
  "devdoc": {
    "kind": "dev",
    "methods": {},
    "version": 1
  },
  "userdoc": {
    "kind": "user",
    "methods": {},
    "version": 1
  }
}